{
  "_format": "hh-sol-artifact-1",
  "contractName": "AuroraERC721",
  "sourceName": "contracts/AuroraERC721.sol",
  "abi": [
    {
      "inputs": [
        {
          "internalType": "string",
          "name": "name",
          "type": "string"
        },
        {
          "internalType": "string",
          "name": "symbol",
          "type": "string"
        }
      ],
      "stateMutability": "nonpayable",
      "type": "constructor"
    },
    {
      "anonymous": false,
      "inputs": [
        {
          "indexed": true,
          "internalType": "address",
          "name": "owner",
          "type": "address"
        },
        {
          "indexed": true,
          "internalType": "address",
          "name": "approved",
          "type": "address"
        },
        {
          "indexed": true,
          "internalType": "uint256",
          "name": "tokenId",
          "type": "uint256"
        }
      ],
      "name": "Approval",
      "type": "event"
    },
    {
      "anonymous": false,
      "inputs": [
        {
          "indexed": true,
          "internalType": "address",
          "name": "owner",
          "type": "address"
        },
        {
          "indexed": true,
          "internalType": "address",
          "name": "operator",
          "type": "address"
        },
        {
          "indexed": false,
          "internalType": "bool",
          "name": "approved",
          "type": "bool"
        }
      ],
      "name": "ApprovalForAll",
      "type": "event"
    },
    {
      "anonymous": false,
      "inputs": [
        {
          "indexed": true,
          "internalType": "address",
          "name": "from",
          "type": "address"
        },
        {
          "indexed": true,
          "internalType": "address",
          "name": "to",
          "type": "address"
        },
        {
          "indexed": true,
          "internalType": "uint256",
          "name": "tokenId",
          "type": "uint256"
        }
      ],
      "name": "Transfer",
      "type": "event"
    },
    {
      "inputs": [
        {
          "internalType": "uint256",
          "name": "eventId",
          "type": "uint256"
        },
        {
          "internalType": "string",
          "name": "_eventURI",
          "type": "string"
        }
      ],
      "name": "_setEventURI",
      "outputs": [],
      "stateMutability": "nonpayable",
      "type": "function"
    },
    {
      "inputs": [
        {
          "internalType": "uint256",
          "name": "TokenId",
          "type": "uint256"
        },
        {
          "internalType": "uint256",
          "name": "EventId",
          "type": "uint256"
        },
        {
          "internalType": "string",
          "name": "_tokenURI",
          "type": "string"
        }
      ],
      "name": "_setTokenEvent",
      "outputs": [],
      "stateMutability": "nonpayable",
      "type": "function"
    },
    {
      "inputs": [
        {
          "internalType": "address",
          "name": "to",
          "type": "address"
        },
        {
          "internalType": "uint256",
          "name": "tokenId",
          "type": "uint256"
        }
      ],
      "name": "approve",
      "outputs": [],
      "stateMutability": "nonpayable",
      "type": "function"
    },
    {
      "inputs": [
        {
          "internalType": "address",
          "name": "owner",
          "type": "address"
        }
      ],
      "name": "balanceOf",
      "outputs": [
        {
          "internalType": "uint256",
          "name": "",
          "type": "uint256"
        }
      ],
      "stateMutability": "view",
      "type": "function"
    },
    {
      "inputs": [
        {
          "internalType": "address",
          "name": "_claimer",
          "type": "address"
        },
        {
          "internalType": "uint256",
          "name": "eventId",
          "type": "uint256"
        },
        {
          "internalType": "uint256",
          "name": "tokentId",
          "type": "uint256"
        },
        {
          "internalType": "string",
          "name": "_tokenURI",
          "type": "string"
        }
      ],
      "name": "claimToken",
      "outputs": [
        {
          "internalType": "uint256",
          "name": "",
          "type": "uint256"
        }
      ],
      "stateMutability": "nonpayable",
      "type": "function"
    },
    {
      "inputs": [
        {
          "internalType": "uint256",
          "name": "tokenId",
          "type": "uint256"
        },
        {
          "internalType": "string",
          "name": "_bidURI",
          "type": "string"
        }
      ],
      "name": "createBid",
      "outputs": [
        {
          "internalType": "uint256",
          "name": "",
          "type": "uint256"
        }
      ],
      "stateMutability": "nonpayable",
      "type": "function"
    },
    {
      "inputs": [
        {
          "internalType": "string",
          "name": "_eventURI",
          "type": "string"
        }
      ],
      "name": "createEvent",
      "outputs": [
        {
          "internalType": "uint256",
          "name": "",
          "type": "uint256"
        }
      ],
      "stateMutability": "nonpayable",
      "type": "function"
    },
    {
      "inputs": [
        {
          "internalType": "uint256",
          "name": "eventId",
          "type": "uint256"
        }
      ],
      "name": "eventURI",
      "outputs": [
        {
          "internalType": "string",
          "name": "",
          "type": "string"
        }
      ],
      "stateMutability": "view",
      "type": "function"
    },
    {
      "inputs": [
        {
          "internalType": "uint256",
          "name": "tokenId",
          "type": "uint256"
        }
      ],
      "name": "getApproved",
      "outputs": [
        {
          "internalType": "address",
          "name": "",
          "type": "address"
        }
      ],
      "stateMutability": "view",
      "type": "function"
    },
    {
      "inputs": [
        {
          "internalType": "address",
          "name": "owner",
          "type": "address"
        },
        {
          "internalType": "address",
          "name": "operator",
          "type": "address"
        }
      ],
      "name": "isApprovedForAll",
      "outputs": [
        {
          "internalType": "bool",
          "name": "",
          "type": "bool"
        }
      ],
      "stateMutability": "view",
      "type": "function"
    },
    {
      "inputs": [],
      "name": "name",
      "outputs": [
        {
          "internalType": "string",
          "name": "",
          "type": "string"
        }
      ],
      "stateMutability": "view",
      "type": "function"
    },
    {
      "inputs": [
        {
          "internalType": "uint256",
          "name": "tokenId",
          "type": "uint256"
        }
      ],
      "name": "ownerOf",
      "outputs": [
        {
          "internalType": "address",
          "name": "",
          "type": "address"
        }
      ],
      "stateMutability": "view",
      "type": "function"
    },
    {
      "inputs": [
        {
          "internalType": "address",
          "name": "from",
          "type": "address"
        },
        {
          "internalType": "address",
          "name": "to",
          "type": "address"
        },
        {
          "internalType": "uint256",
          "name": "tokenId",
          "type": "uint256"
        }
      ],
      "name": "safeTransferFrom",
      "outputs": [],
      "stateMutability": "nonpayable",
      "type": "function"
    },
    {
      "inputs": [
        {
          "internalType": "address",
          "name": "from",
          "type": "address"
        },
        {
          "internalType": "address",
          "name": "to",
          "type": "address"
        },
        {
          "internalType": "uint256",
          "name": "tokenId",
          "type": "uint256"
        },
        {
          "internalType": "bytes",
          "name": "_data",
          "type": "bytes"
        }
      ],
      "name": "safeTransferFrom",
      "outputs": [],
      "stateMutability": "nonpayable",
      "type": "function"
    },
    {
      "inputs": [
        {
          "internalType": "address",
          "name": "operator",
          "type": "address"
        },
        {
          "internalType": "bool",
          "name": "approved",
          "type": "bool"
        }
      ],
      "name": "setApprovalForAll",
      "outputs": [],
      "stateMutability": "nonpayable",
      "type": "function"
    },
    {
      "inputs": [
        {
          "internalType": "bytes4",
          "name": "interfaceId",
          "type": "bytes4"
        }
      ],
      "name": "supportsInterface",
      "outputs": [
        {
          "internalType": "bool",
          "name": "",
          "type": "bool"
        }
      ],
      "stateMutability": "view",
      "type": "function"
    },
    {
      "inputs": [],
      "name": "symbol",
      "outputs": [
        {
          "internalType": "string",
          "name": "",
          "type": "string"
        }
      ],
      "stateMutability": "view",
      "type": "function"
    },
    {
      "inputs": [
        {
          "internalType": "uint256",
          "name": "tokenId",
          "type": "uint256"
        }
      ],
      "name": "tokenURI",
      "outputs": [
        {
          "internalType": "string",
          "name": "",
          "type": "string"
        }
      ],
      "stateMutability": "view",
      "type": "function"
    },
    {
      "inputs": [
        {
          "internalType": "address",
          "name": "from",
          "type": "address"
        },
        {
          "internalType": "address",
          "name": "to",
          "type": "address"
        },
        {
          "internalType": "uint256",
          "name": "tokenId",
          "type": "uint256"
        }
      ],
      "name": "transferFrom",
      "outputs": [],
      "stateMutability": "nonpayable",
      "type": "function"
    }
  ],
  "bytecode": "0x60806040523480156200001157600080fd5b506040516200311f3803806200311f8339818101604052810190620000379190620001a3565b818181600090805190602001906200005192919062000075565b5080600190805190602001906200006a92919062000075565b5050505050620003ac565b8280546200008390620002bd565b90600052602060002090601f016020900481019282620000a75760008555620000f3565b82601f10620000c257805160ff1916838001178555620000f3565b82800160010185558215620000f3579182015b82811115620000f2578251825591602001919060010190620000d5565b5b50905062000102919062000106565b5090565b5b808211156200012157600081600090555060010162000107565b5090565b60006200013c620001368462000251565b62000228565b9050828152602081018484840111156200015b576200015a6200038c565b5b6200016884828562000287565b509392505050565b600082601f83011262000188576200018762000387565b5b81516200019a84826020860162000125565b91505092915050565b60008060408385031215620001bd57620001bc62000396565b5b600083015167ffffffffffffffff811115620001de57620001dd62000391565b5b620001ec8582860162000170565b925050602083015167ffffffffffffffff81111562000210576200020f62000391565b5b6200021e8582860162000170565b9150509250929050565b60006200023462000247565b9050620002428282620002f3565b919050565b6000604051905090565b600067ffffffffffffffff8211156200026f576200026e62000358565b5b6200027a826200039b565b9050602081019050919050565b60005b83811015620002a75780820151818401526020810190506200028a565b83811115620002b7576000848401525b50505050565b60006002820490506001821680620002d657607f821691505b60208210811415620002ed57620002ec62000329565b5b50919050565b620002fe826200039b565b810181811067ffffffffffffffff8211171562000320576200031f62000358565b5b80604052505050565b7f4e487b7100000000000000000000000000000000000000000000000000000000600052602260045260246000fd5b7f4e487b7100000000000000000000000000000000000000000000000000000000600052604160045260246000fd5b600080fd5b600080fd5b600080fd5b600080fd5b6000601f19601f8301169050919050565b612d6380620003bc6000396000f3fe608060405234801561001057600080fd5b50600436106101215760003560e01c806370137593116100ad578063a22cb46511610071578063a22cb4651461033e578063b88d4fde1461035a578063c22aac2014610376578063c87b56dd146103a6578063e985e9c5146103d657610121565b8063701375931461026057806370a082311461029057806395d89b41146102c05780639bc2bc71146102de578063a0fd0c6a1461030e57610121565b80631cd043d6116100f45780631cd043d6146101c057806323b872dd146101dc5780633592dd80146101f857806342842e0e146102145780636352211e1461023057610121565b806301ffc9a71461012657806306fdde0314610156578063081812fc14610174578063095ea7b3146101a4575b600080fd5b610140600480360381019061013b9190611dd1565b610406565b60405161014d91906122b1565b60405180910390f35b61015e6104e8565b60405161016b91906122cc565b60405180910390f35b61018e60048036038101906101899190611e74565b61057a565b60405161019b919061224a565b60405180910390f35b6101be60048036038101906101b99190611d0e565b6105ff565b005b6101da60048036038101906101d59190611ea1565b610717565b005b6101f660048036038101906101f19190611bf8565b610743565b005b610212600480360381019061020d9190611efd565b6107a3565b005b61022e60048036038101906102299190611bf8565b6107e7565b005b61024a60048036038101906102459190611e74565b610807565b604051610257919061224a565b60405180910390f35b61027a60048036038101906102759190611ea1565b6108b9565b60405161028791906124ae565b60405180910390f35b6102aa60048036038101906102a59190611b8b565b61091f565b6040516102b791906124ae565b60405180910390f35b6102c86109d7565b6040516102d591906122cc565b60405180910390f35b6102f860048036038101906102f39190611e2b565b610a69565b60405161030591906124ae565b60405180910390f35b61032860048036038101906103239190611e74565b610a99565b60405161033591906122cc565b60405180910390f35b61035860048036038101906103539190611cce565b610b3e565b005b610374600480360381019061036f9190611c4b565b610b54565b005b610390600480360381019061038b9190611d4e565b610bb6565b60405161039d91906124ae565b60405180910390f35b6103c060048036038101906103bb9190611e74565b610bf2565b6040516103cd91906122cc565b60405180910390f35b6103f060048036038101906103eb9190611bb8565b610c99565b6040516103fd91906122b1565b60405180910390f35b60007f80ac58cd000000000000000000000000000000000000000000000000000000007bffffffffffffffffffffffffffffffffffffffffffffffffffffffff1916827bffffffffffffffffffffffffffffffffffffffffffffffffffffffff191614806104d157507f5b5e139f000000000000000000000000000000000000000000000000000000007bffffffffffffffffffffffffffffffffffffffffffffffffffffffff1916827bffffffffffffffffffffffffffffffffffffffffffffffffffffffff1916145b806104e157506104e082610d2d565b5b9050919050565b6060600080546104f790612704565b80601f016020809104026020016040519081016040528092919081815260200182805461052390612704565b80156105705780601f1061054557610100808354040283529160200191610570565b820191906000526020600020905b81548152906001019060200180831161055357829003601f168201915b5050505050905090565b600061058582610d97565b6105c4576040517f08c379a00000000000000000000000000000000000000000000000000000000081526004016105bb9061242e565b60405180910390fd5b6004600083815260200190815260200160002060009054906101000a900473ffffffffffffffffffffffffffffffffffffffff169050919050565b600061060a82610807565b90508073ffffffffffffffffffffffffffffffffffffffff168373ffffffffffffffffffffffffffffffffffffffff16141561067b576040517f08c379a00000000000000000000000000000000000000000000000000000000081526004016106729061246e565b60405180910390fd5b8073ffffffffffffffffffffffffffffffffffffffff1661069a610e03565b73ffffffffffffffffffffffffffffffffffffffff1614806106c957506106c8816106c3610e03565b610c99565b5b610708576040517f08c379a00000000000000000000000000000000000000000000000000000000081526004016106ff906123ae565b60405180910390fd5b6107128383610e0b565b505050565b80600a6000848152602001908152602001600020908051906020019061073e9291906118e8565b505050565b61075461074e610e03565b82610ec4565b610793576040517f08c379a000000000000000000000000000000000000000000000000000000000815260040161078a9061248e565b60405180910390fd5b61079e838383610fa2565b505050565b60405180604001604052806107b784611209565b815260200182815250600c60008581526020019081526020016000209060026107e192919061196e565b50505050565b61080283838360405180602001604052806000815250610b54565b505050565b6000806002600084815260200190815260200160002060009054906101000a900473ffffffffffffffffffffffffffffffffffffffff169050600073ffffffffffffffffffffffffffffffffffffffff168173ffffffffffffffffffffffffffffffffffffffff1614156108b0576040517f08c379a00000000000000000000000000000000000000000000000000000000081526004016108a7906123ee565b60405180910390fd5b80915050919050565b600060405180604001604052806108cf85611209565b815260200183815250600b600060075481526020019081526020016000209060026108fb92919061196e565b506007600081548092919061090f90612767565b9190505550600754905092915050565b60008073ffffffffffffffffffffffffffffffffffffffff168273ffffffffffffffffffffffffffffffffffffffff161415610990576040517f08c379a0000000000000000000000000000000000000000000000000000000008152600401610987906123ce565b60405180910390fd5b600360008373ffffffffffffffffffffffffffffffffffffffff1673ffffffffffffffffffffffffffffffffffffffff168152602001908152602001600020549050919050565b6060600180546109e690612704565b80601f0160208091040260200160405190810160405280929190818152602001828054610a1290612704565b8015610a5f5780601f10610a3457610100808354040283529160200191610a5f565b820191906000526020600020905b815481529060010190602001808311610a4257829003601f168201915b5050505050905090565b6000610a7760085483610717565b60086000815480929190610a8a90612767565b91905055506008549050919050565b6060600a60008381526020019081526020016000208054610ab990612704565b80601f0160208091040260200160405190810160405280929190818152602001828054610ae590612704565b8015610b325780601f10610b0757610100808354040283529160200191610b32565b820191906000526020600020905b815481529060010190602001808311610b1557829003601f168201915b50505050509050919050565b610b50610b49610e03565b838361136a565b5050565b610b65610b5f610e03565b83610ec4565b610ba4576040517f08c379a0000000000000000000000000000000000000000000000000000000008152600401610b9b9061248e565b60405180910390fd5b610bb0848484846114d7565b50505050565b6000610bc28584611533565b610bcd8385846107a3565b60066000815480929190610be090612767565b91905055506006549050949350505050565b6060610bfd82610d97565b610c3c576040517f08c379a0000000000000000000000000000000000000000000000000000000008152600401610c339061244e565b60405180910390fd5b6000610c4661170d565b90506000815111610c665760405180602001604052806000815250610c91565b80610c7084611209565b604051602001610c81929190612226565b6040516020818303038152906040525b915050919050565b6000600560008473ffffffffffffffffffffffffffffffffffffffff1673ffffffffffffffffffffffffffffffffffffffff16815260200190815260200160002060008373ffffffffffffffffffffffffffffffffffffffff1673ffffffffffffffffffffffffffffffffffffffff16815260200190815260200160002060009054906101000a900460ff16905092915050565b60007f01ffc9a7000000000000000000000000000000000000000000000000000000007bffffffffffffffffffffffffffffffffffffffffffffffffffffffff1916827bffffffffffffffffffffffffffffffffffffffffffffffffffffffff1916149050919050565b60008073ffffffffffffffffffffffffffffffffffffffff166002600084815260200190815260200160002060009054906101000a900473ffffffffffffffffffffffffffffffffffffffff1673ffffffffffffffffffffffffffffffffffffffff1614159050919050565b600033905090565b816004600083815260200190815260200160002060006101000a81548173ffffffffffffffffffffffffffffffffffffffff021916908373ffffffffffffffffffffffffffffffffffffffff160217905550808273ffffffffffffffffffffffffffffffffffffffff16610e7e83610807565b73ffffffffffffffffffffffffffffffffffffffff167f8c5be1e5ebec7d5bd14f71427d1e84f3dd0314c0f7b2291e5b200ac8c7c3b92560405160405180910390a45050565b6000610ecf82610d97565b610f0e576040517f08c379a0000000000000000000000000000000000000000000000000000000008152600401610f059061238e565b60405180910390fd5b6000610f1983610807565b90508073ffffffffffffffffffffffffffffffffffffffff168473ffffffffffffffffffffffffffffffffffffffff161480610f8857508373ffffffffffffffffffffffffffffffffffffffff16610f708461057a565b73ffffffffffffffffffffffffffffffffffffffff16145b80610f995750610f988185610c99565b5b91505092915050565b8273ffffffffffffffffffffffffffffffffffffffff16610fc282610807565b73ffffffffffffffffffffffffffffffffffffffff1614611018576040517f08c379a000000000000000000000000000000000000000000000000000000000815260040161100f9061230e565b60405180910390fd5b600073ffffffffffffffffffffffffffffffffffffffff168273ffffffffffffffffffffffffffffffffffffffff161415611088576040517f08c379a000000000000000000000000000000000000000000000000000000000815260040161107f9061234e565b60405180910390fd5b611093838383611724565b61109e600082610e0b565b6001600360008573ffffffffffffffffffffffffffffffffffffffff1673ffffffffffffffffffffffffffffffffffffffff16815260200190815260200160002060008282546110ee919061261a565b925050819055506001600360008473ffffffffffffffffffffffffffffffffffffffff1673ffffffffffffffffffffffffffffffffffffffff16815260200190815260200160002060008282546111459190612593565b92505081905550816002600083815260200190815260200160002060006101000a81548173ffffffffffffffffffffffffffffffffffffffff021916908373ffffffffffffffffffffffffffffffffffffffff160217905550808273ffffffffffffffffffffffffffffffffffffffff168473ffffffffffffffffffffffffffffffffffffffff167fddf252ad1be2c89b69c2b068fc378daa952ba7f163c4a11628f55a4df523b3ef60405160405180910390a4611204838383611729565b505050565b60606000821415611251576040518060400160405280600181526020017f30000000000000000000000000000000000000000000000000000000000000008152509050611365565b600082905060005b6000821461128357808061126c90612767565b915050600a8261127c91906125e9565b9150611259565b60008167ffffffffffffffff81111561129f5761129e61289d565b5b6040519080825280601f01601f1916602001820160405280156112d15781602001600182028036833780820191505090505b5090505b6000851461135e576001826112ea919061261a565b9150600a856112f991906127b0565b60306113059190612593565b60f81b81838151811061131b5761131a61286e565b5b60200101907effffffffffffffffffffffffffffffffffffffffffffffffffffffffffffff1916908160001a905350600a8561135791906125e9565b94506112d5565b8093505050505b919050565b8173ffffffffffffffffffffffffffffffffffffffff168373ffffffffffffffffffffffffffffffffffffffff1614156113d9576040517f08c379a00000000000000000000000000000000000000000000000000000000081526004016113d09061236e565b60405180910390fd5b80600560008573ffffffffffffffffffffffffffffffffffffffff1673ffffffffffffffffffffffffffffffffffffffff16815260200190815260200160002060008473ffffffffffffffffffffffffffffffffffffffff1673ffffffffffffffffffffffffffffffffffffffff16815260200190815260200160002060006101000a81548160ff0219169083151502179055508173ffffffffffffffffffffffffffffffffffffffff168373ffffffffffffffffffffffffffffffffffffffff167f17307eab39ab6107e8899845ad3d59bd9653f200f220920489ca2b5937696c31836040516114ca91906122b1565b60405180910390a3505050565b6114e2848484610fa2565b6114ee8484848461172e565b61152d576040517f08c379a0000000000000000000000000000000000000000000000000000000008152600401611524906122ee565b60405180910390fd5b50505050565b600073ffffffffffffffffffffffffffffffffffffffff168273ffffffffffffffffffffffffffffffffffffffff1614156115a3576040517f08c379a000000000000000000000000000000000000000000000000000000000815260040161159a9061240e565b60405180910390fd5b6115ac81610d97565b156115ec576040517f08c379a00000000000000000000000000000000000000000000000000000000081526004016115e39061232e565b60405180910390fd5b6115f860008383611724565b6001600360008473ffffffffffffffffffffffffffffffffffffffff1673ffffffffffffffffffffffffffffffffffffffff16815260200190815260200160002060008282546116489190612593565b92505081905550816002600083815260200190815260200160002060006101000a81548173ffffffffffffffffffffffffffffffffffffffff021916908373ffffffffffffffffffffffffffffffffffffffff160217905550808273ffffffffffffffffffffffffffffffffffffffff16600073ffffffffffffffffffffffffffffffffffffffff167fddf252ad1be2c89b69c2b068fc378daa952ba7f163c4a11628f55a4df523b3ef60405160405180910390a461170960008383611729565b5050565b606060405180602001604052806000815250905090565b505050565b505050565b600061174f8473ffffffffffffffffffffffffffffffffffffffff166118c5565b156118b8578373ffffffffffffffffffffffffffffffffffffffff1663150b7a02611778610e03565b8786866040518563ffffffff1660e01b815260040161179a9493929190612265565b602060405180830381600087803b1580156117b457600080fd5b505af19250505080156117e557506040513d601f19601f820116820180604052508101906117e29190611dfe565b60015b611868573d8060008114611815576040519150601f19603f3d011682016040523d82523d6000602084013e61181a565b606091505b50600081511415611860576040517f08c379a0000000000000000000000000000000000000000000000000000000008152600401611857906122ee565b60405180910390fd5b805181602001fd5b63150b7a0260e01b7bffffffffffffffffffffffffffffffffffffffffffffffffffffffff1916817bffffffffffffffffffffffffffffffffffffffffffffffffffffffff1916149150506118bd565b600190505b949350505050565b6000808273ffffffffffffffffffffffffffffffffffffffff163b119050919050565b8280546118f490612704565b90600052602060002090601f016020900481019282611916576000855561195d565b82601f1061192f57805160ff191683800117855561195d565b8280016001018555821561195d579182015b8281111561195c578251825591602001919060010190611941565b5b50905061196a91906119c1565b5090565b82600281019282156119b0579160200282015b828111156119af57825182908051906020019061199f9291906118e8565b5091602001919060010190611981565b5b5090506119bd91906119de565b5090565b5b808211156119da5760008160009055506001016119c2565b5090565b5b808211156119fe57600081816119f59190611a02565b506001016119df565b5090565b508054611a0e90612704565b6000825580601f10611a205750611a3f565b601f016020900490600052602060002090810190611a3e91906119c1565b5b50565b6000611a55611a50846124ee565b6124c9565b905082815260208101848484011115611a7157611a706128d1565b5b611a7c8482856126c2565b509392505050565b6000611a97611a928461251f565b6124c9565b905082815260208101848484011115611ab357611ab26128d1565b5b611abe8482856126c2565b509392505050565b600081359050611ad581612cd1565b92915050565b600081359050611aea81612ce8565b92915050565b600081359050611aff81612cff565b92915050565b600081519050611b1481612cff565b92915050565b600082601f830112611b2f57611b2e6128cc565b5b8135611b3f848260208601611a42565b91505092915050565b600082601f830112611b5d57611b5c6128cc565b5b8135611b6d848260208601611a84565b91505092915050565b600081359050611b8581612d16565b92915050565b600060208284031215611ba157611ba06128db565b5b6000611baf84828501611ac6565b91505092915050565b60008060408385031215611bcf57611bce6128db565b5b6000611bdd85828601611ac6565b9250506020611bee85828601611ac6565b9150509250929050565b600080600060608486031215611c1157611c106128db565b5b6000611c1f86828701611ac6565b9350506020611c3086828701611ac6565b9250506040611c4186828701611b76565b9150509250925092565b60008060008060808587031215611c6557611c646128db565b5b6000611c7387828801611ac6565b9450506020611c8487828801611ac6565b9350506040611c9587828801611b76565b925050606085013567ffffffffffffffff811115611cb657611cb56128d6565b5b611cc287828801611b1a565b91505092959194509250565b60008060408385031215611ce557611ce46128db565b5b6000611cf385828601611ac6565b9250506020611d0485828601611adb565b9150509250929050565b60008060408385031215611d2557611d246128db565b5b6000611d3385828601611ac6565b9250506020611d4485828601611b76565b9150509250929050565b60008060008060808587031215611d6857611d676128db565b5b6000611d7687828801611ac6565b9450506020611d8787828801611b76565b9350506040611d9887828801611b76565b925050606085013567ffffffffffffffff811115611db957611db86128d6565b5b611dc587828801611b48565b91505092959194509250565b600060208284031215611de757611de66128db565b5b6000611df584828501611af0565b91505092915050565b600060208284031215611e1457611e136128db565b5b6000611e2284828501611b05565b91505092915050565b600060208284031215611e4157611e406128db565b5b600082013567ffffffffffffffff811115611e5f57611e5e6128d6565b5b611e6b84828501611b48565b91505092915050565b600060208284031215611e8a57611e896128db565b5b6000611e9884828501611b76565b91505092915050565b60008060408385031215611eb857611eb76128db565b5b6000611ec685828601611b76565b925050602083013567ffffffffffffffff811115611ee757611ee66128d6565b5b611ef385828601611b48565b9150509250929050565b600080600060608486031215611f1657611f156128db565b5b6000611f2486828701611b76565b9350506020611f3586828701611b76565b925050604084013567ffffffffffffffff811115611f5657611f556128d6565b5b611f6286828701611b48565b9150509250925092565b611f758161264e565b82525050565b611f8481612660565b82525050565b6000611f9582612550565b611f9f8185612566565b9350611faf8185602086016126d1565b611fb8816128e0565b840191505092915050565b6000611fce8261255b565b611fd88185612577565b9350611fe88185602086016126d1565b611ff1816128e0565b840191505092915050565b60006120078261255b565b6120118185612588565b93506120218185602086016126d1565b80840191505092915050565b600061203a603283612577565b9150612045826128f1565b604082019050919050565b600061205d602583612577565b915061206882612940565b604082019050919050565b6000612080601c83612577565b915061208b8261298f565b602082019050919050565b60006120a3602483612577565b91506120ae826129b8565b604082019050919050565b60006120c6601983612577565b91506120d182612a07565b602082019050919050565b60006120e9602c83612577565b91506120f482612a30565b604082019050919050565b600061210c603883612577565b915061211782612a7f565b604082019050919050565b600061212f602a83612577565b915061213a82612ace565b604082019050919050565b6000612152602983612577565b915061215d82612b1d565b604082019050919050565b6000612175602083612577565b915061218082612b6c565b602082019050919050565b6000612198602c83612577565b91506121a382612b95565b604082019050919050565b60006121bb602f83612577565b91506121c682612be4565b604082019050919050565b60006121de602183612577565b91506121e982612c33565b604082019050919050565b6000612201603183612577565b915061220c82612c82565b604082019050919050565b612220816126b8565b82525050565b60006122328285611ffc565b915061223e8284611ffc565b91508190509392505050565b600060208201905061225f6000830184611f6c565b92915050565b600060808201905061227a6000830187611f6c565b6122876020830186611f6c565b6122946040830185612217565b81810360608301526122a68184611f8a565b905095945050505050565b60006020820190506122c66000830184611f7b565b92915050565b600060208201905081810360008301526122e68184611fc3565b905092915050565b600060208201905081810360008301526123078161202d565b9050919050565b6000602082019050818103600083015261232781612050565b9050919050565b6000602082019050818103600083015261234781612073565b9050919050565b6000602082019050818103600083015261236781612096565b9050919050565b60006020820190508181036000830152612387816120b9565b9050919050565b600060208201905081810360008301526123a7816120dc565b9050919050565b600060208201905081810360008301526123c7816120ff565b9050919050565b600060208201905081810360008301526123e781612122565b9050919050565b6000602082019050818103600083015261240781612145565b9050919050565b6000602082019050818103600083015261242781612168565b9050919050565b600060208201905081810360008301526124478161218b565b9050919050565b60006020820190508181036000830152612467816121ae565b9050919050565b60006020820190508181036000830152612487816121d1565b9050919050565b600060208201905081810360008301526124a7816121f4565b9050919050565b60006020820190506124c36000830184612217565b92915050565b60006124d36124e4565b90506124df8282612736565b919050565b6000604051905090565b600067ffffffffffffffff8211156125095761250861289d565b5b612512826128e0565b9050602081019050919050565b600067ffffffffffffffff82111561253a5761253961289d565b5b612543826128e0565b9050602081019050919050565b600081519050919050565b600081519050919050565b600082825260208201905092915050565b600082825260208201905092915050565b600081905092915050565b600061259e826126b8565b91506125a9836126b8565b9250827fffffffffffffffffffffffffffffffffffffffffffffffffffffffffffffffff038211156125de576125dd6127e1565b5b828201905092915050565b60006125f4826126b8565b91506125ff836126b8565b92508261260f5761260e612810565b5b828204905092915050565b6000612625826126b8565b9150612630836126b8565b925082821015612643576126426127e1565b5b828203905092915050565b600061265982612698565b9050919050565b60008115159050919050565b60007fffffffff0000000000000000000000000000000000000000000000000000000082169050919050565b600073ffffffffffffffffffffffffffffffffffffffff82169050919050565b6000819050919050565b82818337600083830152505050565b60005b838110156126ef5780820151818401526020810190506126d4565b838111156126fe576000848401525b50505050565b6000600282049050600182168061271c57607f821691505b602082108114156127305761272f61283f565b5b50919050565b61273f826128e0565b810181811067ffffffffffffffff8211171561275e5761275d61289d565b5b80604052505050565b6000612772826126b8565b91507fffffffffffffffffffffffffffffffffffffffffffffffffffffffffffffffff8214156127a5576127a46127e1565b5b600182019050919050565b60006127bb826126b8565b91506127c6836126b8565b9250826127d6576127d5612810565b5b828206905092915050565b7f4e487b7100000000000000000000000000000000000000000000000000000000600052601160045260246000fd5b7f4e487b7100000000000000000000000000000000000000000000000000000000600052601260045260246000fd5b7f4e487b7100000000000000000000000000000000000000000000000000000000600052602260045260246000fd5b7f4e487b7100000000000000000000000000000000000000000000000000000000600052603260045260246000fd5b7f4e487b7100000000000000000000000000000000000000000000000000000000600052604160045260246000fd5b600080fd5b600080fd5b600080fd5b600080fd5b6000601f19601f8301169050919050565b7f4552433732313a207472616e7366657220746f206e6f6e20455243373231526560008201527f63656976657220696d706c656d656e7465720000000000000000000000000000602082015250565b7f4552433732313a207472616e736665722066726f6d20696e636f72726563742060008201527f6f776e6572000000000000000000000000000000000000000000000000000000602082015250565b7f4552433732313a20746f6b656e20616c7265616479206d696e74656400000000600082015250565b7f4552433732313a207472616e7366657220746f20746865207a65726f2061646460008201527f7265737300000000000000000000000000000000000000000000000000000000602082015250565b7f4552433732313a20617070726f766520746f2063616c6c657200000000000000600082015250565b7f4552433732313a206f70657261746f7220717565727920666f72206e6f6e657860008201527f697374656e7420746f6b656e0000000000000000000000000000000000000000602082015250565b7f4552433732313a20617070726f76652063616c6c6572206973206e6f74206f7760008201527f6e6572206e6f7220617070726f76656420666f7220616c6c0000000000000000602082015250565b7f4552433732313a2062616c616e636520717565727920666f7220746865207a6560008201527f726f206164647265737300000000000000000000000000000000000000000000602082015250565b7f4552433732313a206f776e657220717565727920666f72206e6f6e657869737460008201527f656e7420746f6b656e0000000000000000000000000000000000000000000000602082015250565b7f4552433732313a206d696e7420746f20746865207a65726f2061646472657373600082015250565b7f4552433732313a20617070726f76656420717565727920666f72206e6f6e657860008201527f697374656e7420746f6b656e0000000000000000000000000000000000000000602082015250565b7f4552433732314d657461646174613a2055524920717565727920666f72206e6f60008201527f6e6578697374656e7420746f6b656e0000000000000000000000000000000000602082015250565b7f4552433732313a20617070726f76616c20746f2063757272656e74206f776e6560008201527f7200000000000000000000000000000000000000000000000000000000000000602082015250565b7f4552433732313a207472616e736665722063616c6c6572206973206e6f74206f60008201527f776e6572206e6f7220617070726f766564000000000000000000000000000000602082015250565b612cda8161264e565b8114612ce557600080fd5b50565b612cf181612660565b8114612cfc57600080fd5b50565b612d088161266c565b8114612d1357600080fd5b50565b612d1f816126b8565b8114612d2a57600080fd5b5056fea264697066735822122002f9f01c85c941563b6392db21ed7d77a0c8454b38f54c46415b2db5a8834cc464736f6c63430008060033",
  "linkReferences": {},
  "deployedLinkReferences": {}
}